{
  "_format": "hh-sol-artifact-1",
  "contractName": "VideoStorage",
  "sourceName": "contracts/Upload.sol",
  "abi": [
    {
      "anonymous": false,
      "inputs": [
        {
          "indexed": true,
          "internalType": "address",
          "name": "user",
          "type": "address"
        },
        {
          "indexed": true,
          "internalType": "bytes32",
          "name": "videoHash",
          "type": "bytes32"
        },
        {
          "indexed": false,
          "internalType": "string",
          "name": "result",
          "type": "string"
        },
        {
          "indexed": false,
          "internalType": "uint256",
          "name": "timestamp",
          "type": "uint256"
        }
      ],
      "name": "VideoUploaded",
      "type": "event"
    },
    {
      "inputs": [
        {
          "internalType": "bytes32",
          "name": "videoHash",
          "type": "bytes32"
        },
        {
          "internalType": "string",
          "name": "result",
          "type": "string"
        }
      ],
      "name": "addVideo",
      "outputs": [],
      "stateMutability": "nonpayable",
      "type": "function"
    },
    {
      "inputs": [
        {
          "internalType": "address",
          "name": "userAddress",
          "type": "address"
        }
      ],
      "name": "getUserVideos",
      "outputs": [
        {
          "internalType": "bytes32",
          "name": "",
          "type": "bytes32"
        }
      ],
      "stateMutability": "view",
      "type": "function"
    },
    {
      "inputs": [
        {
          "internalType": "bytes32",
          "name": "videoHash",
          "type": "bytes32"
        }
      ],
      "name": "getVideoResult",
      "outputs": [
        {
          "components": [
            {
              "internalType": "bytes32",
              "name": "videoHash",
              "type": "bytes32"
            },
            {
              "internalType": "string",
              "name": "result",
              "type": "string"
            },
            {
              "internalType": "uint256",
              "name": "timestamp",
              "type": "uint256"
            }
          ],
          "internalType": "struct VideoStorage.VideoResult",
          "name": "",
          "type": "tuple"
        }
      ],
      "stateMutability": "view",
      "type": "function"
    },
    {
      "inputs": [
        {
          "internalType": "address",
          "name": "",
          "type": "address"
        }
      ],
      "name": "users",
      "outputs": [
        {
          "internalType": "address",
          "name": "userAddress",
          "type": "address"
        }
      ],
      "stateMutability": "view",
      "type": "function"
    },
    {
      "inputs": [
        {
          "internalType": "bytes32",
          "name": "",
          "type": "bytes32"
        }
      ],
      "name": "videoResults",
      "outputs": [
        {
          "internalType": "bytes32",
          "name": "videoHash",
          "type": "bytes32"
        },
        {
          "internalType": "string",
          "name": "result",
          "type": "string"
        },
        {
          "internalType": "uint256",
          "name": "timestamp",
          "type": "uint256"
        }
      ],
      "stateMutability": "view",
      "type": "function"
    }
  ],
  "bytecode": "0x608060405234801561001057600080fd5b50610dbf806100206000396000f3fe608060405234801561001057600080fd5b50600436106100575760003560e01c80633b259b021461005c578063a87430ba14610078578063cb4da9f1146100a8578063cec1c092146100da578063de7606191461010a575b600080fd5b610076600480360381019061007191906106c8565b61013a565b005b610092600480360381019061008d9190610782565b610287565b60405161009f91906107be565b60405180910390f35b6100c260048036038101906100bd91906107d9565b6102c5565b6040516100d1939291906108ad565b60405180910390f35b6100f460048036038101906100ef9190610782565b610377565b60405161010191906108eb565b60405180910390f35b610124600480360381019061011f91906107d9565b6103e6565b60405161013191906109be565b60405180910390f35b60006040518060600160405280848152602001838152602001428152509050806001600085815260200190815260200160002060008201518160000155602082015181600101908161018c9190610bec565b50604082015181600201559050506000803373ffffffffffffffffffffffffffffffffffffffff1673ffffffffffffffffffffffffffffffffffffffff1681526020019081526020016000206001018190806001815401808255809150506001900390600052602060002090600302016000909190919091506000820151816000015560208201518160010190816102249190610bec565b50604082015181600201555050823373ffffffffffffffffffffffffffffffffffffffff167fdc37d8b59690aaca0ee5c5cf4272319c196303d64c39c751e7517c17362edad8844260405161027a929190610cbe565b60405180910390a3505050565b60006020528060005260406000206000915090508060000160009054906101000a900473ffffffffffffffffffffffffffffffffffffffff16905081565b60016020528060005260406000206000915090508060000154908060010180546102ee90610a0f565b80601f016020809104026020016040519081016040528092919081815260200182805461031a90610a0f565b80156103675780601f1061033c57610100808354040283529160200191610367565b820191906000526020600020905b81548152906001019060200180831161034a57829003601f168201915b5050505050908060020154905083565b60008060008373ffffffffffffffffffffffffffffffffffffffff1673ffffffffffffffffffffffffffffffffffffffff1681526020019081526020016000206001016000815481106103cd576103cc610cee565b5b9060005260206000209060030201600001549050919050565b6103ee610514565b6000801b600160008481526020019081526020016000206000015403610449576040517f08c379a000000000000000000000000000000000000000000000000000000000815260040161044090610d69565b60405180910390fd5b600160008381526020019081526020016000206040518060600160405290816000820154815260200160018201805461048190610a0f565b80601f01602080910402602001604051908101604052809291908181526020018280546104ad90610a0f565b80156104fa5780601f106104cf576101008083540402835291602001916104fa565b820191906000526020600020905b8154815290600101906020018083116104dd57829003601f168201915b505050505081526020016002820154815250509050919050565b60405180606001604052806000801916815260200160608152602001600081525090565b6000604051905090565b600080fd5b600080fd5b6000819050919050565b61055f8161054c565b811461056a57600080fd5b50565b60008135905061057c81610556565b92915050565b600080fd5b600080fd5b6000601f19601f8301169050919050565b7f4e487b7100000000000000000000000000000000000000000000000000000000600052604160045260246000fd5b6105d58261058c565b810181811067ffffffffffffffff821117156105f4576105f361059d565b5b80604052505050565b6000610607610538565b905061061382826105cc565b919050565b600067ffffffffffffffff8211156106335761063261059d565b5b61063c8261058c565b9050602081019050919050565b82818337600083830152505050565b600061066b61066684610618565b6105fd565b90508281526020810184848401111561068757610686610587565b5b610692848285610649565b509392505050565b600082601f8301126106af576106ae610582565b5b81356106bf848260208601610658565b91505092915050565b600080604083850312156106df576106de610542565b5b60006106ed8582860161056d565b925050602083013567ffffffffffffffff81111561070e5761070d610547565b5b61071a8582860161069a565b9150509250929050565b600073ffffffffffffffffffffffffffffffffffffffff82169050919050565b600061074f82610724565b9050919050565b61075f81610744565b811461076a57600080fd5b50565b60008135905061077c81610756565b92915050565b60006020828403121561079857610797610542565b5b60006107a68482850161076d565b91505092915050565b6107b881610744565b82525050565b60006020820190506107d360008301846107af565b92915050565b6000602082840312156107ef576107ee610542565b5b60006107fd8482850161056d565b91505092915050565b61080f8161054c565b82525050565b600081519050919050565b600082825260208201905092915050565b60005b8381101561084f578082015181840152602081019050610834565b60008484015250505050565b600061086682610815565b6108708185610820565b9350610880818560208601610831565b6108898161058c565b840191505092915050565b6000819050919050565b6108a781610894565b82525050565b60006060820190506108c26000830186610806565b81810360208301526108d4818561085b565b90506108e3604083018461089e565b949350505050565b60006020820190506109006000830184610806565b92915050565b61090f8161054c565b82525050565b600082825260208201905092915050565b600061093182610815565b61093b8185610915565b935061094b818560208601610831565b6109548161058c565b840191505092915050565b61096881610894565b82525050565b60006060830160008301516109866000860182610906565b506020830151848203602086015261099e8282610926565b91505060408301516109b3604086018261095f565b508091505092915050565b600060208201905081810360008301526109d8818461096e565b905092915050565b7f4e487b7100000000000000000000000000000000000000000000000000000000600052602260045260246000fd5b60006002820490506001821680610a2757607f821691505b602082108103610a3a57610a396109e0565b5b50919050565b60008190508160005260206000209050919050565b60006020601f8301049050919050565b600082821b905092915050565b600060088302610aa27fffffffffffffffffffffffffffffffffffffffffffffffffffffffffffffffff82610a65565b610aac8683610a65565b95508019841693508086168417925050509392505050565b6000819050919050565b6000610ae9610ae4610adf84610894565b610ac4565b610894565b9050919050565b6000819050919050565b610b0383610ace565b610b17610b0f82610af0565b848454610a72565b825550505050565b600090565b610b2c610b1f565b610b37818484610afa565b505050565b5b81811015610b5b57610b50600082610b24565b600181019050610b3d565b5050565b601f821115610ba057610b7181610a40565b610b7a84610a55565b81016020851015610b89578190505b610b9d610b9585610a55565b830182610b3c565b50505b505050565b600082821c905092915050565b6000610bc360001984600802610ba5565b1980831691505092915050565b6000610bdc8383610bb2565b9150826002028217905092915050565b610bf582610815565b67ffffffffffffffff811115610c0e57610c0d61059d565b5b610c188254610a0f565b610c23828285610b5f565b600060209050601f831160018114610c565760008415610c44578287015190505b610c4e8582610bd0565b865550610cb6565b601f198416610c6486610a40565b60005b82811015610c8c57848901518255600182019150602085019450602081019050610c67565b86831015610ca95784890151610ca5601f891682610bb2565b8355505b6001600288020188555050505b505050505050565b60006040820190508181036000830152610cd8818561085b565b9050610ce7602083018461089e565b9392505050565b7f4e487b7100000000000000000000000000000000000000000000000000000000600052603260045260246000fd5b7f566964656f206e6f7420666f756e64206f6e20626c6f636b636861696e2e0000600082015250565b6000610d53601e83610820565b9150610d5e82610d1d565b602082019050919050565b60006020820190508181036000830152610d8281610d46565b905091905056fea2646970667358221220f2f9c37897ceaabae5f8e3431de1ab226419a5a05277eb1c6e26b981d4b748ba64736f6c63430008180033",
  "linkReferences": {},
  "deployedLinkReferences": {}
}