{
  "_format": "hh-sol-artifact-1",
  "contractName": "VideoStorage",
  "sourceName": "contracts/Upload.sol",
  "abi": [
    {
      "anonymous": false,
      "inputs": [
        {
          "indexed": true,
          "internalType": "address",
          "name": "user",
          "type": "address"
        },
        {
          "indexed": true,
          "internalType": "bytes32",
          "name": "videoHash",
          "type": "bytes32"
        },
        {
          "indexed": false,
          "internalType": "string",
          "name": "result",
          "type": "string"
        },
        {
          "indexed": false,
          "internalType": "uint256",
          "name": "timestamp",
          "type": "uint256"
        }
      ],
      "name": "VideoUploaded",
      "type": "event"
    },
    {
      "inputs": [
        {
          "internalType": "bytes32",
          "name": "videoHash",
          "type": "bytes32"
        },
        {
          "internalType": "string",
          "name": "result",
          "type": "string"
        }
      ],
      "name": "addVideo",
      "outputs": [],
      "stateMutability": "nonpayable",
      "type": "function"
    },
    {
      "inputs": [
        {
          "internalType": "address",
          "name": "userAddress",
          "type": "address"
        }
      ],
      "name": "getUserVideos",
      "outputs": [
        {
          "components": [
            {
              "internalType": "bytes32",
              "name": "videoHash",
              "type": "bytes32"
            },
            {
              "internalType": "string",
              "name": "result",
              "type": "string"
            },
            {
              "internalType": "uint256",
              "name": "timestamp",
              "type": "uint256"
            }
          ],
          "internalType": "struct VideoStorage.VideoResult[]",
          "name": "",
          "type": "tuple[]"
        }
      ],
      "stateMutability": "view",
      "type": "function"
    },
    {
      "inputs": [
        {
          "internalType": "bytes32",
          "name": "videoHash",
          "type": "bytes32"
        }
      ],
      "name": "getVideoResult",
      "outputs": [
        {
          "components": [
            {
              "internalType": "bytes32",
              "name": "videoHash",
              "type": "bytes32"
            },
            {
              "internalType": "string",
              "name": "result",
              "type": "string"
            },
            {
              "internalType": "uint256",
              "name": "timestamp",
              "type": "uint256"
            }
          ],
          "internalType": "struct VideoStorage.VideoResult",
          "name": "",
          "type": "tuple"
        }
      ],
      "stateMutability": "view",
      "type": "function"
    },
    {
      "inputs": [
        {
          "internalType": "address",
          "name": "",
          "type": "address"
        }
      ],
      "name": "users",
      "outputs": [
        {
          "internalType": "address",
          "name": "userAddress",
          "type": "address"
        }
      ],
      "stateMutability": "view",
      "type": "function"
    },
    {
      "inputs": [
        {
          "internalType": "bytes32",
          "name": "",
          "type": "bytes32"
        }
      ],
      "name": "videoResults",
      "outputs": [
        {
          "internalType": "bytes32",
          "name": "videoHash",
          "type": "bytes32"
        },
        {
          "internalType": "string",
          "name": "result",
          "type": "string"
        },
        {
          "internalType": "uint256",
          "name": "timestamp",
          "type": "uint256"
        }
      ],
      "stateMutability": "view",
      "type": "function"
    }
  ],
  "bytecode": "0x608060405234801561001057600080fd5b50611183806100206000396000f3fe608060405234801561001057600080fd5b50600436106100575760003560e01c80633b259b021461005c578063a87430ba14610078578063cb4da9f1146100a8578063cec1c092146100da578063de7606191461010a575b600080fd5b61007660048036038101906100719190610910565b61013a565b005b610092600480360381019061008d91906109ca565b6103f8565b60405161009f9190610a06565b60405180910390f35b6100c260048036038101906100bd9190610a21565b610436565b6040516100d193929190610af5565b60405180910390f35b6100f460048036038101906100ef91906109ca565b6104e8565b6040516101019190610cad565b60405180910390f35b610124600480360381019061011f9190610a21565b61062e565b6040516101319190610d1f565b60405180910390f35b6000801b600160008481526020019081526020016000206000015414610195576040517f08c379a000000000000000000000000000000000000000000000000000000000815260040161018c90610db3565b60405180910390fd5b6000604051806060016040528084815260200183815260200142815250905080600160008581526020019081526020016000206000820151816000015560208201518160010190816101e79190610fdf565b5060408201518160020155905050600073ffffffffffffffffffffffffffffffffffffffff166000803373ffffffffffffffffffffffffffffffffffffffff1673ffffffffffffffffffffffffffffffffffffffff16815260200190815260200160002060000160009054906101000a900473ffffffffffffffffffffffffffffffffffffffff1673ffffffffffffffffffffffffffffffffffffffff160361030b57336000803373ffffffffffffffffffffffffffffffffffffffff1673ffffffffffffffffffffffffffffffffffffffff16815260200190815260200160002060000160006101000a81548173ffffffffffffffffffffffffffffffffffffffff021916908373ffffffffffffffffffffffffffffffffffffffff1602179055505b6000803373ffffffffffffffffffffffffffffffffffffffff1673ffffffffffffffffffffffffffffffffffffffff1681526020019081526020016000206001018190806001815401808255809150506001900390600052602060002090600302016000909190919091506000820151816000015560208201518160010190816103959190610fdf565b50604082015181600201555050823373ffffffffffffffffffffffffffffffffffffffff167fdc37d8b59690aaca0ee5c5cf4272319c196303d64c39c751e7517c17362edad884426040516103eb9291906110b1565b60405180910390a3505050565b60006020528060005260406000206000915090508060000160009054906101000a900473ffffffffffffffffffffffffffffffffffffffff16905081565b600160205280600052604060002060009150905080600001549080600101805461045f90610e02565b80601f016020809104026020016040519081016040528092919081815260200182805461048b90610e02565b80156104d85780601f106104ad576101008083540402835291602001916104d8565b820191906000526020600020905b8154815290600101906020018083116104bb57829003601f168201915b5050505050908060020154905083565b60606000808373ffffffffffffffffffffffffffffffffffffffff1673ffffffffffffffffffffffffffffffffffffffff168152602001908152602001600020600101805480602002602001604051908101604052809291908181526020016000905b8282101561062357838290600052602060002090600302016040518060600160405290816000820154815260200160018201805461058890610e02565b80601f01602080910402602001604051908101604052809291908181526020018280546105b490610e02565b80156106015780601f106105d657610100808354040283529160200191610601565b820191906000526020600020905b8154815290600101906020018083116105e457829003601f168201915b505050505081526020016002820154815250508152602001906001019061054b565b505050509050919050565b61063661075c565b6000801b600160008481526020019081526020016000206000015403610691576040517f08c379a00000000000000000000000000000000000000000000000000000000081526004016106889061112d565b60405180910390fd5b60016000838152602001908152602001600020604051806060016040529081600082015481526020016001820180546106c990610e02565b80601f01602080910402602001604051908101604052809291908181526020018280546106f590610e02565b80156107425780601f1061071757610100808354040283529160200191610742565b820191906000526020600020905b81548152906001019060200180831161072557829003601f168201915b505050505081526020016002820154815250509050919050565b60405180606001604052806000801916815260200160608152602001600081525090565b6000604051905090565b600080fd5b600080fd5b6000819050919050565b6107a781610794565b81146107b257600080fd5b50565b6000813590506107c48161079e565b92915050565b600080fd5b600080fd5b6000601f19601f8301169050919050565b7f4e487b7100000000000000000000000000000000000000000000000000000000600052604160045260246000fd5b61081d826107d4565b810181811067ffffffffffffffff8211171561083c5761083b6107e5565b5b80604052505050565b600061084f610780565b905061085b8282610814565b919050565b600067ffffffffffffffff82111561087b5761087a6107e5565b5b610884826107d4565b9050602081019050919050565b82818337600083830152505050565b60006108b36108ae84610860565b610845565b9050828152602081018484840111156108cf576108ce6107cf565b5b6108da848285610891565b509392505050565b600082601f8301126108f7576108f66107ca565b5b81356109078482602086016108a0565b91505092915050565b600080604083850312156109275761092661078a565b5b6000610935858286016107b5565b925050602083013567ffffffffffffffff8111156109565761095561078f565b5b610962858286016108e2565b9150509250929050565b600073ffffffffffffffffffffffffffffffffffffffff82169050919050565b60006109978261096c565b9050919050565b6109a78161098c565b81146109b257600080fd5b50565b6000813590506109c48161099e565b92915050565b6000602082840312156109e0576109df61078a565b5b60006109ee848285016109b5565b91505092915050565b610a008161098c565b82525050565b6000602082019050610a1b60008301846109f7565b92915050565b600060208284031215610a3757610a3661078a565b5b6000610a45848285016107b5565b91505092915050565b610a5781610794565b82525050565b600081519050919050565b600082825260208201905092915050565b60005b83811015610a97578082015181840152602081019050610a7c565b60008484015250505050565b6000610aae82610a5d565b610ab88185610a68565b9350610ac8818560208601610a79565b610ad1816107d4565b840191505092915050565b6000819050919050565b610aef81610adc565b82525050565b6000606082019050610b0a6000830186610a4e565b8181036020830152610b1c8185610aa3565b9050610b2b6040830184610ae6565b949350505050565b600081519050919050565b600082825260208201905092915050565b6000819050602082019050919050565b610b6881610794565b82525050565b600082825260208201905092915050565b6000610b8a82610a5d565b610b948185610b6e565b9350610ba4818560208601610a79565b610bad816107d4565b840191505092915050565b610bc181610adc565b82525050565b6000606083016000830151610bdf6000860182610b5f565b5060208301518482036020860152610bf78282610b7f565b9150506040830151610c0c6040860182610bb8565b508091505092915050565b6000610c238383610bc7565b905092915050565b6000602082019050919050565b6000610c4382610b33565b610c4d8185610b3e565b935083602082028501610c5f85610b4f565b8060005b85811015610c9b5784840389528151610c7c8582610c17565b9450610c8783610c2b565b925060208a01995050600181019050610c63565b50829750879550505050505092915050565b60006020820190508181036000830152610cc78184610c38565b905092915050565b6000606083016000830151610ce76000860182610b5f565b5060208301518482036020860152610cff8282610b7f565b9150506040830151610d146040860182610bb8565b508091505092915050565b60006020820190508181036000830152610d398184610ccf565b905092915050565b7f566964656f20616c726561647920616e616c797a656420616e6420657869737460008201527f73206f6e20626c6f636b636861696e2e00000000000000000000000000000000602082015250565b6000610d9d603083610a68565b9150610da882610d41565b604082019050919050565b60006020820190508181036000830152610dcc81610d90565b9050919050565b7f4e487b7100000000000000000000000000000000000000000000000000000000600052602260045260246000fd5b60006002820490506001821680610e1a57607f821691505b602082108103610e2d57610e2c610dd3565b5b50919050565b60008190508160005260206000209050919050565b60006020601f8301049050919050565b600082821b905092915050565b600060088302610e957fffffffffffffffffffffffffffffffffffffffffffffffffffffffffffffffff82610e58565b610e9f8683610e58565b95508019841693508086168417925050509392505050565b6000819050919050565b6000610edc610ed7610ed284610adc565b610eb7565b610adc565b9050919050565b6000819050919050565b610ef683610ec1565b610f0a610f0282610ee3565b848454610e65565b825550505050565b600090565b610f1f610f12565b610f2a818484610eed565b505050565b5b81811015610f4e57610f43600082610f17565b600181019050610f30565b5050565b601f821115610f9357610f6481610e33565b610f6d84610e48565b81016020851015610f7c578190505b610f90610f8885610e48565b830182610f2f565b50505b505050565b600082821c905092915050565b6000610fb660001984600802610f98565b1980831691505092915050565b6000610fcf8383610fa5565b9150826002028217905092915050565b610fe882610a5d565b67ffffffffffffffff811115611001576110006107e5565b5b61100b8254610e02565b611016828285610f52565b600060209050601f8311600181146110495760008415611037578287015190505b6110418582610fc3565b8655506110a9565b601f19841661105786610e33565b60005b8281101561107f5784890151825560018201915060208501945060208101905061105a565b8683101561109c5784890151611098601f891682610fa5565b8355505b6001600288020188555050505b505050505050565b600060408201905081810360008301526110cb8185610aa3565b90506110da6020830184610ae6565b9392505050565b7f566964656f206e6f7420666f756e64206f6e20626c6f636b636861696e2e0000600082015250565b6000611117601e83610a68565b9150611122826110e1565b602082019050919050565b600060208201905081810360008301526111468161110a565b905091905056fea2646970667358221220f904c84f9593dd5eba4abacc8814d2fc0528248c80d675725d0c271a0b8cc60664736f6c63430008180033",
  "linkReferences": {},
  "deployedLinkReferences": {}
}