{
  "_format": "hh-sol-artifact-1",
  "contractName": "VideoStorage",
  "sourceName": "contracts/Upload.sol",
  "abi": [
    {
      "anonymous": false,
      "inputs": [
        {
          "indexed": true,
          "internalType": "address",
          "name": "user",
          "type": "address"
        },
        {
          "indexed": true,
          "internalType": "string",
          "name": "videoHash",
          "type": "string"
        },
        {
          "indexed": false,
          "internalType": "string",
          "name": "result",
          "type": "string"
        },
        {
          "indexed": false,
          "internalType": "uint256",
          "name": "timestamp",
          "type": "uint256"
        }
      ],
      "name": "VideoUploaded",
      "type": "event"
    },
    {
      "inputs": [
        {
          "internalType": "string",
          "name": "videoHash",
          "type": "string"
        },
        {
          "internalType": "string",
          "name": "result",
          "type": "string"
        }
      ],
      "name": "addVideo",
      "outputs": [],
      "stateMutability": "nonpayable",
      "type": "function"
    },
    {
      "inputs": [
        {
          "internalType": "address",
          "name": "userAddress",
          "type": "address"
        }
      ],
      "name": "getUserVideos",
      "outputs": [
        {
          "components": [
            {
              "internalType": "string",
              "name": "videoHash",
              "type": "string"
            },
            {
              "internalType": "string",
              "name": "result",
              "type": "string"
            },
            {
              "internalType": "uint256",
              "name": "timestamp",
              "type": "uint256"
            }
          ],
          "internalType": "struct VideoStorage.VideoResult[]",
          "name": "",
          "type": "tuple[]"
        }
      ],
      "stateMutability": "view",
      "type": "function"
    },
    {
      "inputs": [
        {
          "internalType": "string",
          "name": "videoHash",
          "type": "string"
        }
      ],
      "name": "getVideoResult",
      "outputs": [
        {
          "components": [
            {
              "internalType": "string",
              "name": "videoHash",
              "type": "string"
            },
            {
              "internalType": "string",
              "name": "result",
              "type": "string"
            },
            {
              "internalType": "uint256",
              "name": "timestamp",
              "type": "uint256"
            }
          ],
          "internalType": "struct VideoStorage.VideoResult",
          "name": "",
          "type": "tuple"
        }
      ],
      "stateMutability": "view",
      "type": "function"
    },
    {
      "inputs": [
        {
          "internalType": "address",
          "name": "",
          "type": "address"
        }
      ],
      "name": "users",
      "outputs": [
        {
          "internalType": "address",
          "name": "userAddress",
          "type": "address"
        }
      ],
      "stateMutability": "view",
      "type": "function"
    },
    {
      "inputs": [
        {
          "internalType": "string",
          "name": "",
          "type": "string"
        }
      ],
      "name": "videoResults",
      "outputs": [
        {
          "internalType": "string",
          "name": "videoHash",
          "type": "string"
        },
        {
          "internalType": "string",
          "name": "result",
          "type": "string"
        },
        {
          "internalType": "uint256",
          "name": "timestamp",
          "type": "uint256"
        }
      ],
      "stateMutability": "view",
      "type": "function"
    }
  ],
  "bytecode": "0x608060405234801561001057600080fd5b506112d1806100206000396000f3fe608060405234801561001057600080fd5b50600436106100575760003560e01c80630dbd9bdc1461005c5780632894291e1461007857806362f6261a146100a8578063a87430ba146100da578063cec1c0921461010a575b600080fd5b610076600480360381019061007191906109dc565b61013a565b005b610092600480360381019061008d9190610a54565b61032f565b60405161009f9190610b8c565b60405180910390f35b6100c260048036038101906100bd9190610a54565b610505565b6040516100d193929190610c07565b60405180910390f35b6100f460048036038101906100ef9190610caa565b610655565b6040516101019190610ce6565b60405180910390f35b610124600480360381019061011f9190610caa565b610693565b6040516101319190610e1a565b60405180910390f35b600060018360405161014c9190610e78565b9081526020016040518091039020600001805461016890610ebe565b9050146101aa576040517f08c379a00000000000000000000000000000000000000000000000000000000081526004016101a190610f61565b60405180910390fd5b60006040518060600160405280848152602001838152602001428152509050806001846040516101da9190610e78565b908152602001604051809103902060008201518160000190816101fd919061112d565b506020820151816001019081610213919061112d565b50604082015181600201559050506000803373ffffffffffffffffffffffffffffffffffffffff1673ffffffffffffffffffffffffffffffffffffffff16815260200190815260200160002060010181908060018154018082558091505060019003906000526020600020906003020160009091909190915060008201518160000190816102a1919061112d565b5060208201518160010190816102b7919061112d565b50604082015181600201555050826040516102d29190610e78565b60405180910390203373ffffffffffffffffffffffffffffffffffffffff167f87de23d4080984acee6ef3fc272689b6777f6f85cdf6e1d6cc46970fce5163fe84426040516103229291906111ff565b60405180910390a3505050565b610337610861565b60006001836040516103499190610e78565b9081526020016040518091039020600001805461036590610ebe565b9050036103a7576040517f08c379a000000000000000000000000000000000000000000000000000000000815260040161039e9061127b565b60405180910390fd5b6001826040516103b79190610e78565b90815260200160405180910390206040518060600160405290816000820180546103e090610ebe565b80601f016020809104026020016040519081016040528092919081815260200182805461040c90610ebe565b80156104595780601f1061042e57610100808354040283529160200191610459565b820191906000526020600020905b81548152906001019060200180831161043c57829003601f168201915b5050505050815260200160018201805461047290610ebe565b80601f016020809104026020016040519081016040528092919081815260200182805461049e90610ebe565b80156104eb5780601f106104c0576101008083540402835291602001916104eb565b820191906000526020600020905b8154815290600101906020018083116104ce57829003601f168201915b505050505081526020016002820154815250509050919050565b60018180516020810182018051848252602083016020850120818352809550505050505060009150905080600001805461053e90610ebe565b80601f016020809104026020016040519081016040528092919081815260200182805461056a90610ebe565b80156105b75780601f1061058c576101008083540402835291602001916105b7565b820191906000526020600020905b81548152906001019060200180831161059a57829003601f168201915b5050505050908060010180546105cc90610ebe565b80601f01602080910402602001604051908101604052809291908181526020018280546105f890610ebe565b80156106455780601f1061061a57610100808354040283529160200191610645565b820191906000526020600020905b81548152906001019060200180831161062857829003601f168201915b5050505050908060020154905083565b60006020528060005260406000206000915090508060000160009054906101000a900473ffffffffffffffffffffffffffffffffffffffff16905081565b60606000808373ffffffffffffffffffffffffffffffffffffffff1673ffffffffffffffffffffffffffffffffffffffff168152602001908152602001600020600101805480602002602001604051908101604052809291908181526020016000905b82821015610856578382906000526020600020906003020160405180606001604052908160008201805461072990610ebe565b80601f016020809104026020016040519081016040528092919081815260200182805461075590610ebe565b80156107a25780601f10610777576101008083540402835291602001916107a2565b820191906000526020600020905b81548152906001019060200180831161078557829003601f168201915b505050505081526020016001820180546107bb90610ebe565b80601f01602080910402602001604051908101604052809291908181526020018280546107e790610ebe565b80156108345780601f1061080957610100808354040283529160200191610834565b820191906000526020600020905b81548152906001019060200180831161081757829003601f168201915b50505050508152602001600282015481525050815260200190600101906106f6565b505050509050919050565b60405180606001604052806060815260200160608152602001600081525090565b6000604051905090565b600080fd5b600080fd5b600080fd5b600080fd5b6000601f19601f8301169050919050565b7f4e487b7100000000000000000000000000000000000000000000000000000000600052604160045260246000fd5b6108e9826108a0565b810181811067ffffffffffffffff82111715610908576109076108b1565b5b80604052505050565b600061091b610882565b905061092782826108e0565b919050565b600067ffffffffffffffff821115610947576109466108b1565b5b610950826108a0565b9050602081019050919050565b82818337600083830152505050565b600061097f61097a8461092c565b610911565b90508281526020810184848401111561099b5761099a61089b565b5b6109a684828561095d565b509392505050565b600082601f8301126109c3576109c2610896565b5b81356109d384826020860161096c565b91505092915050565b600080604083850312156109f3576109f261088c565b5b600083013567ffffffffffffffff811115610a1157610a10610891565b5b610a1d858286016109ae565b925050602083013567ffffffffffffffff811115610a3e57610a3d610891565b5b610a4a858286016109ae565b9150509250929050565b600060208284031215610a6a57610a6961088c565b5b600082013567ffffffffffffffff811115610a8857610a87610891565b5b610a94848285016109ae565b91505092915050565b600081519050919050565b600082825260208201905092915050565b60005b83811015610ad7578082015181840152602081019050610abc565b60008484015250505050565b6000610aee82610a9d565b610af88185610aa8565b9350610b08818560208601610ab9565b610b11816108a0565b840191505092915050565b6000819050919050565b610b2f81610b1c565b82525050565b60006060830160008301518482036000860152610b528282610ae3565b91505060208301518482036020860152610b6c8282610ae3565b9150506040830151610b816040860182610b26565b508091505092915050565b60006020820190508181036000830152610ba68184610b35565b905092915050565b600082825260208201905092915050565b6000610bca82610a9d565b610bd48185610bae565b9350610be4818560208601610ab9565b610bed816108a0565b840191505092915050565b610c0181610b1c565b82525050565b60006060820190508181036000830152610c218186610bbf565b90508181036020830152610c358185610bbf565b9050610c446040830184610bf8565b949350505050565b600073ffffffffffffffffffffffffffffffffffffffff82169050919050565b6000610c7782610c4c565b9050919050565b610c8781610c6c565b8114610c9257600080fd5b50565b600081359050610ca481610c7e565b92915050565b600060208284031215610cc057610cbf61088c565b5b6000610cce84828501610c95565b91505092915050565b610ce081610c6c565b82525050565b6000602082019050610cfb6000830184610cd7565b92915050565b600081519050919050565b600082825260208201905092915050565b6000819050602082019050919050565b60006060830160008301518482036000860152610d4a8282610ae3565b91505060208301518482036020860152610d648282610ae3565b9150506040830151610d796040860182610b26565b508091505092915050565b6000610d908383610d2d565b905092915050565b6000602082019050919050565b6000610db082610d01565b610dba8185610d0c565b935083602082028501610dcc85610d1d565b8060005b85811015610e085784840389528151610de98582610d84565b9450610df483610d98565b925060208a01995050600181019050610dd0565b50829750879550505050505092915050565b60006020820190508181036000830152610e348184610da5565b905092915050565b600081905092915050565b6000610e5282610a9d565b610e5c8185610e3c565b9350610e6c818560208601610ab9565b80840191505092915050565b6000610e848284610e47565b915081905092915050565b7f4e487b7100000000000000000000000000000000000000000000000000000000600052602260045260246000fd5b60006002820490506001821680610ed657607f821691505b602082108103610ee957610ee8610e8f565b5b50919050565b7f566964656f20616c726561647920616e616c797a656420616e6420657869737460008201527f73206f6e20626c6f636b636861696e2e00000000000000000000000000000000602082015250565b6000610f4b603083610bae565b9150610f5682610eef565b604082019050919050565b60006020820190508181036000830152610f7a81610f3e565b9050919050565b60008190508160005260206000209050919050565b60006020601f8301049050919050565b600082821b905092915050565b600060088302610fe37fffffffffffffffffffffffffffffffffffffffffffffffffffffffffffffffff82610fa6565b610fed8683610fa6565b95508019841693508086168417925050509392505050565b6000819050919050565b600061102a61102561102084610b1c565b611005565b610b1c565b9050919050565b6000819050919050565b6110448361100f565b61105861105082611031565b848454610fb3565b825550505050565b600090565b61106d611060565b61107881848461103b565b505050565b5b8181101561109c57611091600082611065565b60018101905061107e565b5050565b601f8211156110e1576110b281610f81565b6110bb84610f96565b810160208510156110ca578190505b6110de6110d685610f96565b83018261107d565b50505b505050565b600082821c905092915050565b6000611104600019846008026110e6565b1980831691505092915050565b600061111d83836110f3565b9150826002028217905092915050565b61113682610a9d565b67ffffffffffffffff81111561114f5761114e6108b1565b5b6111598254610ebe565b6111648282856110a0565b600060209050601f8311600181146111975760008415611185578287015190505b61118f8582611111565b8655506111f7565b601f1984166111a586610f81565b60005b828110156111cd578489015182556001820191506020850194506020810190506111a8565b868310156111ea57848901516111e6601f8916826110f3565b8355505b6001600288020188555050505b505050505050565b600060408201905081810360008301526112198185610bbf565b90506112286020830184610bf8565b9392505050565b7f566964656f206e6f7420666f756e64206f6e20626c6f636b636861696e2e0000600082015250565b6000611265601e83610bae565b91506112708261122f565b602082019050919050565b6000602082019050818103600083015261129481611258565b905091905056fea2646970667358221220927a2d85023d8cd551ef0affa2e97867e9b47ea9e49b97926ef3999ffb4ccbcb64736f6c63430008180033",
  "linkReferences": {},
  "deployedLinkReferences": {}
}